{
  "contractName": "DeployedAddresses",
  "abi": [
    {
      "constant": true,
      "inputs": [],
      "name": "StoneThrower",
      "outputs": [
        {
          "name": "",
          "type": "address"
        }
      ],
      "payable": false,
      "stateMutability": "pure",
      "type": "function"
    },
    {
      "constant": true,
      "inputs": [],
      "name": "PlayerContract",
      "outputs": [
        {
          "name": "",
          "type": "address"
        }
      ],
      "payable": false,
      "stateMutability": "pure",
      "type": "function"
    },
    {
      "constant": true,
      "inputs": [],
      "name": "WorldContract",
      "outputs": [
        {
          "name": "",
          "type": "address"
        }
      ],
      "payable": false,
      "stateMutability": "pure",
      "type": "function"
    },
    {
      "constant": true,
      "inputs": [],
      "name": "Island",
      "outputs": [
        {
          "name": "",
          "type": "address"
        }
      ],
      "payable": false,
      "stateMutability": "pure",
      "type": "function"
    },
    {
      "constant": true,
      "inputs": [],
      "name": "Migrations",
      "outputs": [
        {
          "name": "",
          "type": "address"
        }
      ],
      "payable": false,
      "stateMutability": "pure",
      "type": "function"
    },
    {
      "constant": true,
      "inputs": [],
      "name": "GameContract",
      "outputs": [
        {
          "name": "",
          "type": "address"
        }
      ],
      "payable": false,
      "stateMutability": "pure",
      "type": "function"
    }
  ],
  "bytecode": "0x6060604052341561000f57600080fd5b6102e38061001e6000396000f300606060405260043610610078576000357c0100000000000000000000000000000000000000000000000000000000900463ffffffff168063113c16451461007d578063395a41b9146100c75780634478ad63146101115780636a4003bb1461015b578063a360b26f146101a5578063e757c70d146101ef575b600080fd5b610085610239565b604051808273ffffffffffffffffffffffffffffffffffffffff1673ffffffffffffffffffffffffffffffffffffffff16815260200191505060405180910390f35b6100cf610240565b604051808273ffffffffffffffffffffffffffffffffffffffff1673ffffffffffffffffffffffffffffffffffffffff16815260200191505060405180910390f35b61011961025c565b604051808273ffffffffffffffffffffffffffffffffffffffff1673ffffffffffffffffffffffffffffffffffffffff16815260200191505060405180910390f35b610163610278565b604051808273ffffffffffffffffffffffffffffffffffffffff1673ffffffffffffffffffffffffffffffffffffffff16815260200191505060405180910390f35b6101ad61027f565b604051808273ffffffffffffffffffffffffffffffffffffffff1673ffffffffffffffffffffffffffffffffffffffff16815260200191505060405180910390f35b6101f761029b565b604051808273ffffffffffffffffffffffffffffffffffffffff1673ffffffffffffffffffffffffffffffffffffffff16815260200191505060405180910390f35b6000806000fd5b60007336a8054476cef7d35251fae816f87e09a49e7e43905090565b60007348dd0dcaece8ebde0a5f2e7a69b1082cd318ccd1905090565b6000806000fd5b6000735b3c2c61643515ec7354cc8d6e8fbff040e5fdb1905090565b6000731fde8f79b63cbacbefa2e7e3e158bae2380a1ae99050905600a165627a7a723058207dc1f160e4222be4f53b2ed5f9ee978b2cd0c83764b5be38d40069f7738c0a200029",
  "source": "pragma solidity ^0.4.17; \n\n library DeployedAddresses {\n  function GameContract() public pure returns (address) { return 0x1FdE8F79B63cbACBefa2E7e3e158Bae2380A1ae9; }\n  function Migrations() public pure returns (address) { return 0x5B3C2C61643515Ec7354cC8d6E8FBfF040e5FdB1; }\n  function PlayerContract() public pure returns (address) { return 0x36a8054476CEF7D35251fAE816f87E09a49e7e43; }\n  function WorldContract() public pure returns (address) { return 0x48DD0dcaeCe8EbDe0A5F2E7A69B1082cd318cCd1; }\n  function Island() public pure returns (address) { revert(); }\n  function StoneThrower() public pure returns (address) { revert(); }\n}",
  "sourcePath": "truffle/DeployedAddresses.sol",
  "compiler": {
    "name": "solc",
    "version": "0.4.18+commit.9cf6e910.Emscripten.clang"
  },
  "schemaVersion": "1.0.1",
  "updatedAt": "2017-12-15T03:02:42.458Z"
}