{
  "contractName": "PlayerContract",
  "abi": [
    {
      "constant": false,
      "inputs": [],
      "name": "kill",
      "outputs": [],
      "payable": false,
      "stateMutability": "nonpayable",
      "type": "function"
    },
    {
      "constant": true,
      "inputs": [
        {
          "name": "",
          "type": "address"
        }
      ],
      "name": "players",
      "outputs": [
        {
          "name": "username",
          "type": "string"
        },
        {
          "name": "identity",
          "type": "address"
        }
      ],
      "payable": false,
      "stateMutability": "view",
      "type": "function"
    },
    {
      "inputs": [
        {
          "name": "_game",
          "type": "address"
        }
      ],
      "payable": false,
      "stateMutability": "nonpayable",
      "type": "constructor"
    }
  ],
  "bytecode": "0x6060604052341561000f57600080fd5b60405160208061033583398101604052808051906020019091905050806000806101000a81548173ffffffffffffffffffffffffffffffffffffffff021916908373ffffffffffffffffffffffffffffffffffffffff160217905550506102ba8061007b6000396000f30060606040526004361061004c576000357c0100000000000000000000000000000000000000000000000000000000900463ffffffff16806341c0e1b514610051578063e2eb41ff14610066575b600080fd5b341561005c57600080fd5b610064610168565b005b341561007157600080fd5b61009d600480803573ffffffffffffffffffffffffffffffffffffffff1690602001909190505061024b565b60405180806020018373ffffffffffffffffffffffffffffffffffffffff1673ffffffffffffffffffffffffffffffffffffffff1681526020018281038252848181546001816001161561010002031660029004815260200191508054600181600116156101000203166002900480156101585780601f1061012d57610100808354040283529160200191610158565b820191906000526020600020905b81548152906001019060200180831161013b57829003601f168201915b5050935050505060405180910390f35b3373ffffffffffffffffffffffffffffffffffffffff166000809054906101000a900473ffffffffffffffffffffffffffffffffffffffff1673ffffffffffffffffffffffffffffffffffffffff16638da5cb5b6000604051602001526040518163ffffffff167c0100000000000000000000000000000000000000000000000000000000028152600401602060405180830381600087803b151561020c57600080fd5b6102c65a03f1151561021d57600080fd5b5050506040518051905073ffffffffffffffffffffffffffffffffffffffff1614151561024957600080fd5b565b600160205280600052604060002060009150905080600001908060010160009054906101000a900473ffffffffffffffffffffffffffffffffffffffff169050825600a165627a7a7230582040f57e1a64ad22467b8bbd861e259e0b5e4faacf0586efe385f4fa0949ea65980029",
  "source": "pragma solidity ^0.4.18;\n\nimport './GameContract.sol';\n\ncontract PlayerContract {\n\n    // Represents a player of the game\n    struct Player {\n    // username of the player\n    string username;\n    // public key of the player\n    address identity;\n    }\n\n    address game;\n\n    mapping (address => Player) public players;\n    Player[] playerIndex;\n\n    function PlayerContract(address _game) public {\n        game = _game;\n    }\n\n    function kill() public {\n        require(GameContract(game).owner() == msg.sender);\n    }\n}\n",
  "sourcePath": "/Users/tillkolter/work/me/islandcoin/contracts/PlayerContract.sol",
  "compiler": {
    "name": "solc",
    "version": "0.4.18+commit.9cf6e910.Emscripten.clang"
  },
  "schemaVersion": "1.0.1",
  "updatedAt": "2017-12-12T13:44:45.018Z"
}