{
  "contractName": "SafeSend",
  "abi": [
    {
      "constant": true,
      "inputs": [],
      "name": "recipient",
      "outputs": [
        {
          "name": "",
          "type": "address"
        }
      ],
      "payable": false,
      "stateMutability": "view",
      "type": "function"
    },
    {
      "constant": false,
      "inputs": [],
      "name": "deliver",
      "outputs": [],
      "payable": false,
      "stateMutability": "nonpayable",
      "type": "function"
    },
    {
      "inputs": [
        {
          "name": "_recipient",
          "type": "address"
        }
      ],
      "payable": true,
      "stateMutability": "payable",
      "type": "constructor"
    }
  ],
  "bytecode": "0x60606040526040516020806101b683398101604052808051906020019091905050806000806101000a81548173ffffffffffffffffffffffffffffffffffffffff021916908373ffffffffffffffffffffffffffffffffffffffff16021790555050610146806100706000396000f30060606040526004361061004c576000357c0100000000000000000000000000000000000000000000000000000000900463ffffffff16806366d003ac14610051578063fd3e50a7146100a6575b600080fd5b341561005c57600080fd5b6100646100bb565b604051808273ffffffffffffffffffffffffffffffffffffffff1673ffffffffffffffffffffffffffffffffffffffff16815260200191505060405180910390f35b34156100b157600080fd5b6100b96100e0565b005b6000809054906101000a900473ffffffffffffffffffffffffffffffffffffffff1681565b6000809054906101000a900473ffffffffffffffffffffffffffffffffffffffff1673ffffffffffffffffffffffffffffffffffffffff16ff00a165627a7a7230582093267ca3b1f66b7c04ccd9ca67e17d2d4a2a88ed7f81d01135cc700414a723310029",
  "source": "pragma solidity ^0.4.8;\n\ncontract SafeSend {\n  address public recipient;\n  \n  function SafeSend(address _recipient) payable {\n    recipient = _recipient;\n  }\n\n  function deliver() {\n    selfdestruct(recipient);\n  }\n}\n",
  "sourcePath": "/Users/tillkolter/.nvm/versions/node/v7.5.0/lib/node_modules/truffle/build/SafeSend.sol",
  "compiler": {
    "name": "solc",
    "version": "0.4.18+commit.9cf6e910.Emscripten.clang"
  },
  "schemaVersion": "1.0.1",
  "updatedAt": "2017-12-15T03:02:42.458Z"
}