{
  "contractName": "WorldContract",
  "abi": [
    {
      "constant": true,
      "inputs": [
        {
          "name": "army",
          "type": "tuple",
          "components": [
            {
              "name": "stonethrowers",
              "type": "uint256"
            }
          ]
        },
        {
          "name": "oceanY",
          "type": "uint8"
        },
        {
          "name": "positionX",
          "type": "uint8"
        },
        {
          "name": "positionY",
          "type": "uint8"
        }
      ],
      "name": "getETA",
      "outputs": [
        {
          "name": "",
          "type": "uint256"
        }
      ],
      "payable": false,
      "stateMutability": "view",
      "type": "function"
    },
    {
      "constant": true,
      "inputs": [
        {
          "name": "user",
          "type": "address"
        },
        {
          "name": "oceanY",
          "type": "uint8"
        },
        {
          "name": "positionX",
          "type": "uint8"
        },
        {
          "name": "positionY",
          "type": "uint8"
        }
      ],
      "name": "somethingNew",
      "outputs": [
        {
          "name": "",
          "type": "bool"
        }
      ],
      "payable": false,
      "stateMutability": "view",
      "type": "function"
    },
    {
      "constant": true,
      "inputs": [
        {
          "name": "user",
          "type": "address"
        },
        {
          "name": "amount",
          "type": "uint256"
        },
        {
          "name": "sourceIsland",
          "type": "address"
        },
        {
          "name": "targetIsland",
          "type": "address"
        }
      ],
      "name": "yDimension",
      "outputs": [
        {
          "name": "",
          "type": "uint256"
        }
      ],
      "payable": false,
      "stateMutability": "view",
      "type": "function"
    },
    {
      "constant": true,
      "inputs": [
        {
          "name": "resourceType",
          "type": "uint8"
        },
        {
          "name": "amount",
          "type": "uint256"
        },
        {
          "name": "sourceIsland",
          "type": "address"
        },
        {
          "name": "targetIsland",
          "type": "address"
        }
      ],
      "name": "kill",
      "outputs": [
        {
          "name": "",
          "type": "uint8"
        }
      ],
      "payable": false,
      "stateMutability": "view",
      "type": "function"
    },
    {
      "constant": false,
      "inputs": [
        {
          "name": "resourceType",
          "type": "uint8"
        },
        {
          "name": "amount",
          "type": "uint256"
        },
        {
          "components": [
            {
              "name": "stonethrowers",
              "type": "uint256"
            }
          ],
          "name": "sourceIsland",
          "type": "address"
        },
        {
          "name": "targetIsland",
          "type": "address"
        }
      ],
      "name": "createTransferOrder",
      "outputs": [
        {
          "name": "",
          "type": "bool"
        }
      ],
      "payable": false,
      "stateMutability": "nonpayable",
      "type": "function"
    },
    {
      "constant": true,
      "inputs": [
        {
          "name": "army",
          "type": "tuple",
          "components": [
            {
              "name": "stonethrowers",
              "type": "uint256"
            }
          ]
        },
        {
          "name": "amount",
          "type": "uint256"
        },
        {
          "name": "sourceIsland",
          "type": "address"
        },
        {
          "name": "targetIsland",
          "type": "address"
        }
      ],
      "name": "isDead",
      "outputs": [
        {
          "name": "",
          "type": "bool"
        }
      ],
      "payable": false,
      "stateMutability": "view",
      "type": "function"
    },
    {
      "inputs": [
        {
          "name": "attacker",
          "type": "address",
          "components": [
            {
              "name": "stonethrowers",
              "type": "uint256"
            }
          ]
        },
        {
          "name": "victim",
          "type": "address"
        },
        {
          "components": [
            {
              "name": "stonethrowers",
              "type": "uint256"
            }
          ],
          "name": "army",
          "type": "tuple"
        }
      ],
      "payable": false,
      "stateMutability": "nonpayable",
      "type": "function",
      "constant": false,
      "name": "setAttack",
      "outputs": [
        {
          "name": "",
          "type": "bool"
        }
      ]
    },
    {
      "constant": true,
      "inputs": [
        {
          "name": "island",
          "type": "address"
        },
        {
          "name": "victim",
          "type": "address"
        },
        {
          "components": [
            {
              "name": "stonethrowers",
              "type": "uint256"
            }
          ],
          "name": "army",
          "type": "tuple"
        }
      ],
      "name": "getAttacks",
      "outputs": [
        {
          "name": "",
          "type": "tuple[]",
          "components": [
            {
              "name": "attacker",
              "type": "address"
            },
            {
              "name": "victim",
              "type": "address"
            },
            {
              "name": "arrivalTime",
              "type": "uint256"
            },
            {
              "name": "index",
              "type": "uint256"
            },
            {
              "components": [
                {
                  "name": "stonethrowers",
                  "type": "uint256"
                }
              ],
              "name": "army",
              "type": "tuple"
            }
          ]
        }
      ],
      "payable": false,
      "stateMutability": "view",
      "type": "function"
    },
    {
      "inputs": [
        {
          "name": "user",
          "type": "address"
        },
        {
          "name": "_y",
          "type": "uint8"
        }
      ],
      "payable": false,
      "stateMutability": "nonpayable",
      "type": "function",
      "constant": false,
      "name": "updateWorld",
      "outputs": [
        {
          "name": "",
          "type": "bool"
        }
      ]
    },
    {
      "constant": true,
      "inputs": [
        {
          "name": "oceanX",
          "type": "uint256"
        },
        {
          "name": "oceanY",
          "type": "uint256"
        },
        {
          "name": "positionX",
          "type": "uint8"
        },
        {
          "name": "positionY",
          "type": "uint8"
        }
      ],
      "name": "owner",
      "outputs": [
        {
          "name": "",
          "type": "address"
        }
      ],
      "payable": false,
      "stateMutability": "view",
      "type": "function"
    },
    {
      "constant": false,
      "inputs": [
        {
          "name": "oceanX",
          "type": "uint256"
        },
        {
          "name": "oceanY",
          "type": "uint256"
        },
        {
          "name": "positionX",
          "type": "uint8"
        },
        {
          "name": "positionY",
          "type": "uint8"
        }
      ],
      "name": "createIsland",
      "outputs": [
        {
          "name": "",
          "type": "address"
        }
      ],
      "payable": false,
      "stateMutability": "nonpayable",
      "type": "function"
    },
    {
      "constant": true,
      "inputs": [
        {
          "name": "islandAddress",
          "type": "address"
        },
        {
          "components": [
            {
              "name": "stonethrowers",
              "type": "uint256"
            }
          ],
          "name": "_targetIsland",
          "type": "address"
        },
        {
          "name": "defender",
          "type": "address"
        }
      ],
      "name": "isIsland",
      "outputs": [
        {
          "name": "",
          "type": "bool"
        }
      ],
      "payable": false,
      "stateMutability": "view",
      "type": "function"
    },
    {
      "inputs": [
        {
          "name": "_sourceIsland",
          "type": "address"
        },
        {
          "name": "_targetIsland",
          "type": "address",
          "components": [
            {
              "name": "stonethrowers",
              "type": "uint256"
            }
          ]
        },
        {
          "name": "defender",
          "type": "address"
        }
      ],
      "payable": false,
      "stateMutability": "view",
      "type": "function",
      "constant": true,
      "name": "getTravelTime",
      "outputs": [
        {
          "name": "",
          "type": "uint256"
        }
      ]
    },
    {
      "constant": false,
      "inputs": [
        {
          "name": "attacker",
          "type": "address"
        },
        {
          "components": [
            {
              "name": "stonethrowers",
              "type": "uint256"
            }
          ],
          "name": "army",
          "type": "tuple"
        },
        {
          "name": "defender",
          "type": "address"
        }
      ],
      "name": "fight",
      "outputs": [
        {
          "name": "",
          "type": "bool"
        }
      ],
      "payable": false,
      "stateMutability": "nonpayable",
      "type": "function"
    },
    {
      "inputs": [
        {
          "name": "_x",
          "type": "uint256"
        },
        {
          "name": "_y",
          "type": "uint256"
        }
      ],
      "payable": false,
      "stateMutability": "view",
      "type": "function",
      "constant": true,
      "name": "xDimension",
      "outputs": [
        {
          "name": "",
          "type": "uint256"
        }
      ]
    },
    {
      "inputs": [
        {
          "name": "_x",
          "type": "uint256"
        },
        {
          "name": "_y",
          "type": "uint256"
        }
      ],
      "payable": false,
      "stateMutability": "nonpayable",
      "type": "constructor"
    }
  ],
  "bytecode": "0x6060604052341561000f57600080fd5b60405160408061307183398101604052808051906020019091908051906020019091905050326000806101000a81548173ffffffffffffffffffffffffffffffffffffffff021916908373ffffffffffffffffffffffffffffffffffffffff16021790555032600560006101000a81548173ffffffffffffffffffffffffffffffffffffffff021916908373ffffffffffffffffffffffffffffffffffffffff16021790555081600b8190555080600c81905550306100cc61015f565b808273ffffffffffffffffffffffffffffffffffffffff1673ffffffffffffffffffffffffffffffffffffffff168152602001915050604051809103906000f080151561011857600080fd5b600660006101000a81548173ffffffffffffffffffffffffffffffffffffffff021916908373ffffffffffffffffffffffffffffffffffffffff160217905550505061016f565b60405161033580612d3c83390190565b612bbe8061017e6000396000f3006060604052600436106100db576000357c0100000000000000000000000000000000000000000000000000000000900463ffffffff16806325744161146100e05780633165c784146101175780633b915bb31461016857806341c0e1b5146101915780635876c9fc146101a65780636ab2d4801461022b5780637263aafb146102665780637a619866146102df57806385a958dc146103685780638da5cb5b146103b9578063d0733e791461040e578063e240233014610492578063e3d4b021146104e3578063f00c9ce91461054f578063faf35390146105c8575b600080fd5b34156100eb57600080fd5b61010160048080359060200190919050506105f1565b6040518082815260200191505060405180910390f35b341561012257600080fd5b61014e600480803573ffffffffffffffffffffffffffffffffffffffff169060200190919050506105ff565b604051808215151515815260200191505060405180910390f35b341561017357600080fd5b61017b6106d7565b6040518082815260200191505060405180910390f35b341561019c57600080fd5b6101a46106dd565b005b34156101b157600080fd5b610211600480803560ff1690602001909190803590602001909190803573ffffffffffffffffffffffffffffffffffffffff1690602001909190803573ffffffffffffffffffffffffffffffffffffffff1690602001909190505061073b565b604051808215151515815260200191505060405180910390f35b341561023657600080fd5b61024c60048080359060200190919050506109aa565b604051808215151515815260200191505060405180910390f35b341561027157600080fd5b6102c5600480803573ffffffffffffffffffffffffffffffffffffffff1690602001909190803573ffffffffffffffffffffffffffffffffffffffff169060200190919080359060200190919050506109bb565b604051808215151515815260200191505060405180910390f35b34156102ea57600080fd5b610316600480803573ffffffffffffffffffffffffffffffffffffffff16906020019091905050610e6a565b60405180806020018281038252838181518152602001915080516000925b818410156103575782849060200190602002015181526020019260010192610334565b925050509250505060405180910390f35b341561037357600080fd5b61039f600480803573ffffffffffffffffffffffffffffffffffffffff169060200190919050506110ae565b604051808215151515815260200191505060405180910390f35b34156103c457600080fd5b6103cc611443565b604051808273ffffffffffffffffffffffffffffffffffffffff1673ffffffffffffffffffffffffffffffffffffffff16815260200191505060405180910390f35b341561041957600080fd5b610450600480803590602001909190803590602001909190803560ff1690602001909190803560ff16906020019091905050611469565b604051808273ffffffffffffffffffffffffffffffffffffffff1673ffffffffffffffffffffffffffffffffffffffff16815260200191505060405180910390f35b341561049d57600080fd5b6104c9600480803573ffffffffffffffffffffffffffffffffffffffff16906020019091905050611751565b604051808215151515815260200191505060405180910390f35b34156104ee57600080fd5b610539600480803573ffffffffffffffffffffffffffffffffffffffff1690602001909190803573ffffffffffffffffffffffffffffffffffffffff16906020019091905050611822565b6040518082815260200191505060405180910390f35b341561055a57600080fd5b6105ae600480803573ffffffffffffffffffffffffffffffffffffffff1690602001909190803590602001909190803573ffffffffffffffffffffffffffffffffffffffff16906020019091905050611974565b604051808215151515815260200191505060405180910390f35b34156105d357600080fd5b6105db611ab6565b6040518082815260200191505060405180910390f35b600061012c42039050919050565b600080600090505b600260008473ffffffffffffffffffffffffffffffffffffffff1673ffffffffffffffffffffffffffffffffffffffff168152602001908152602001600020805490508110156106cc5742600260008573ffffffffffffffffffffffffffffffffffffffff1673ffffffffffffffffffffffffffffffffffffffff1681526020019081526020016000208281548110151561069e57fe5b90600052602060002090600502016002015410156106bf57600191506106d1565b8080600101915050610607565b600091505b50919050565b600c5481565b600560009054906101000a900473ffffffffffffffffffffffffffffffffffffffff1673ffffffffffffffffffffffffffffffffffffffff163373ffffffffffffffffffffffffffffffffffffffff1614151561073957600080fd5b565b600080600061074984611751565b151561075457600080fd5b60008611151561076357600080fd5b83915061076f84611751565b1580156107c95750600560009054906101000a900473ffffffffffffffffffffffffffffffffffffffff1673ffffffffffffffffffffffffffffffffffffffff163373ffffffffffffffffffffffffffffffffffffffff16145b156108e057600560009054906101000a900473ffffffffffffffffffffffffffffffffffffffff1673ffffffffffffffffffffffffffffffffffffffff168573ffffffffffffffffffffffffffffffffffffffff1614151561082a57600080fd5b8173ffffffffffffffffffffffffffffffffffffffff16631588b8088888426000604051602001526040518463ffffffff167c01000000000000000000000000000000000000000000000000000000000281526004018084600081111561088d57fe5b60ff1681526020018381526020018281526020019350505050602060405180830381600087803b15156108bf57600080fd5b6102c65a03f115156108d057600080fd5b50505060405180519050506109a0565b6108ea8585611822565b90508173ffffffffffffffffffffffffffffffffffffffff16631588b80888888442016000604051602001526040518463ffffffff167c01000000000000000000000000000000000000000000000000000000000281526004018084600081111561095157fe5b60ff1681526020018381526020018281526020019350505050602060405180830381600087803b151561098357600080fd5b6102c65a03f1151561099457600080fd5b50505060405180519050505b5050949350505050565b600060018260000151109050919050565b60008060006109c9846105f1565b9150858160000160006101000a81548173ffffffffffffffffffffffffffffffffffffffff021916908373ffffffffffffffffffffffffffffffffffffffff160217905550848160010160006101000a81548173ffffffffffffffffffffffffffffffffffffffff021916908373ffffffffffffffffffffffffffffffffffffffff160217905550818160020181905550600180549050816003018190555083816004016000820151816000015590505060018054806001018281610a8e9190611c11565b916000526020600020906005020160008390919091506000820160009054906101000a900473ffffffffffffffffffffffffffffffffffffffff168160000160006101000a81548173ffffffffffffffffffffffffffffffffffffffff021916908373ffffffffffffffffffffffffffffffffffffffff1602179055506001820160009054906101000a900473ffffffffffffffffffffffffffffffffffffffff168160010160006101000a81548173ffffffffffffffffffffffffffffffffffffffff021916908373ffffffffffffffffffffffffffffffffffffffff16021790555060028201548160020155600382015481600301556004820181600401600082015481600001555050505050600260008773ffffffffffffffffffffffffffffffffffffffff1673ffffffffffffffffffffffffffffffffffffffff1681526020019081526020016000208054806001018281610bee9190611c11565b916000526020600020906005020160008390919091506000820160009054906101000a900473ffffffffffffffffffffffffffffffffffffffff168160000160006101000a81548173ffffffffffffffffffffffffffffffffffffffff021916908373ffffffffffffffffffffffffffffffffffffffff1602179055506001820160009054906101000a900473ffffffffffffffffffffffffffffffffffffffff168160010160006101000a81548173ffffffffffffffffffffffffffffffffffffffff021916908373ffffffffffffffffffffffffffffffffffffffff16021790555060028201548160020155600382015481600301556004820181600401600082015481600001555050505050600460008673ffffffffffffffffffffffffffffffffffffffff1673ffffffffffffffffffffffffffffffffffffffff1681526020019081526020016000208054806001018281610d4e9190611c11565b916000526020600020906005020160008390919091506000820160009054906101000a900473ffffffffffffffffffffffffffffffffffffffff168160000160006101000a81548173ffffffffffffffffffffffffffffffffffffffff021916908373ffffffffffffffffffffffffffffffffffffffff1602179055506001820160009054906101000a900473ffffffffffffffffffffffffffffffffffffffff168160010160006101000a81548173ffffffffffffffffffffffffffffffffffffffff021916908373ffffffffffffffffffffffffffffffffffffffff160217905550600282015481600201556003820154816003015560048201816004016000820154816000015550505050506001925050509392505050565b610e72611c43565b8173ffffffffffffffffffffffffffffffffffffffff16638da5cb5b6000604051602001526040518163ffffffff167c0100000000000000000000000000000000000000000000000000000000028152600401602060405180830381600087803b1515610ede57600080fd5b6102c65a03f11515610eef57600080fd5b5050506040518051905073ffffffffffffffffffffffffffffffffffffffff163273ffffffffffffffffffffffffffffffffffffffff16141515610f3257600080fd5b600260008373ffffffffffffffffffffffffffffffffffffffff1673ffffffffffffffffffffffffffffffffffffffff168152602001908152602001600020805480602002602001604051908101604052809291908181526020016000905b828210156110a3578382906000526020600020906005020160a060405190810160405290816000820160009054906101000a900473ffffffffffffffffffffffffffffffffffffffff1673ffffffffffffffffffffffffffffffffffffffff1673ffffffffffffffffffffffffffffffffffffffff1681526020016001820160009054906101000a900473ffffffffffffffffffffffffffffffffffffffff1673ffffffffffffffffffffffffffffffffffffffff1673ffffffffffffffffffffffffffffffffffffffff168152602001600282015481526020016003820154815260200160048201602060405190810160405290816000820154815250508152505081526020019060010190610f91565b505050509050919050565b60008060006110bc846105ff565b1561143c57600091505b600260008573ffffffffffffffffffffffffffffffffffffffff1673ffffffffffffffffffffffffffffffffffffffff1681526020019081526020016000208054905082101561127e5742600260008673ffffffffffffffffffffffffffffffffffffffff1673ffffffffffffffffffffffffffffffffffffffff1681526020019081526020016000208381548110151561115d57fe5b90600052602060002090600502016002015410156112715761126f600260008673ffffffffffffffffffffffffffffffffffffffff1673ffffffffffffffffffffffffffffffffffffffff168152602001908152602001600020838154811015156111c457fe5b906000526020600020906005020160000160009054906101000a900473ffffffffffffffffffffffffffffffffffffffff16600260008773ffffffffffffffffffffffffffffffffffffffff1673ffffffffffffffffffffffffffffffffffffffff1681526020019081526020016000208481548110151561124257fe5b90600052602060002090600502016004016020604051908101604052908160008201548152505086611974565b505b81806001019250506110c6565b600090505b600460008573ffffffffffffffffffffffffffffffffffffffff1673ffffffffffffffffffffffffffffffffffffffff1681526020019081526020016000208054905081101561143b5742600460008673ffffffffffffffffffffffffffffffffffffffff1673ffffffffffffffffffffffffffffffffffffffff1681526020019081526020016000208381548110151561131a57fe5b906000526020600020906005020160020154101561142e5761142c84600460008773ffffffffffffffffffffffffffffffffffffffff1673ffffffffffffffffffffffffffffffffffffffff1681526020019081526020016000208481548110151561138257fe5b906000526020600020906005020160040160206040519081016040529081600082015481525050600460008873ffffffffffffffffffffffffffffffffffffffff1673ffffffffffffffffffffffffffffffffffffffff168152602001908152602001600020858154811015156113f557fe5b906000526020600020906005020160010160009054906101000a900473ffffffffffffffffffffffffffffffffffffffff16611974565b505b8080600101915050611283565b5b5050919050565b600560009054906101000a900473ffffffffffffffffffffffffffffffffffffffff1681565b6000806000600b54871115151561147f57600080fd5b86868686600560009054906101000a900473ffffffffffffffffffffffffffffffffffffffff16604051808681526020018581526020018460ff1660ff167f01000000000000000000000000000000000000000000000000000000000000000281526001018360ff1660ff167f01000000000000000000000000000000000000000000000000000000000000000281526001018273ffffffffffffffffffffffffffffffffffffffff1673ffffffffffffffffffffffffffffffffffffffff166c01000000000000000000000000028152601401955050505050506040518091039020915061157087878787611abc565b151561157b57600080fd5b8686868630611588611c57565b808681526020018581526020018460ff1660ff1681526020018360ff1660ff1681526020018273ffffffffffffffffffffffffffffffffffffffff1673ffffffffffffffffffffffffffffffffffffffff16815260200195505050505050604051809103906000f08015156115fc57600080fd5b90508060096000846000191660001916815260200190815260200160002060000160006101000a81548173ffffffffffffffffffffffffffffffffffffffff021916908373ffffffffffffffffffffffffffffffffffffffff160217905550600a805480600101828161166f9190611c67565b9160005260206000209060030201600060096000866000191660001916815260200190815260200160002090919091506000820160009054906101000a900473ffffffffffffffffffffffffffffffffffffffff168160000160006101000a81548173ffffffffffffffffffffffffffffffffffffffff021916908373ffffffffffffffffffffffffffffffffffffffff16021790555060018201548160010155600282015481600201906000191690555050600960008460001916600019168152602001908152602001600020600101819055508092505050949350505050565b600080600a805490501415611769576000905061181d565b8173ffffffffffffffffffffffffffffffffffffffff16600a600860008573ffffffffffffffffffffffffffffffffffffffff1673ffffffffffffffffffffffffffffffffffffffff168152602001908152602001600020600101548154811015156117d157fe5b906000526020600020906003020160000160009054906101000a900473ffffffffffffffffffffffffffffffffffffffff1673ffffffffffffffffffffffffffffffffffffffff161490505b919050565b60008061182e84611751565b151561183957600080fd5b61184283611751565b151561184d57600080fd5b8390508073ffffffffffffffffffffffffffffffffffffffff16638da5cb5b6000604051602001526040518163ffffffff167c0100000000000000000000000000000000000000000000000000000000028152600401602060405180830381600087803b15156118bc57600080fd5b6102c65a03f115156118cd57600080fd5b5050506040518051905073ffffffffffffffffffffffffffffffffffffffff163373ffffffffffffffffffffffffffffffffffffffff16148061195d5750600560009054906101000a900473ffffffffffffffffffffffffffffffffffffffff1673ffffffffffffffffffffffffffffffffffffffff163373ffffffffffffffffffffffffffffffffffffffff16145b151561196857600080fd5b61012c91505092915050565b60008061197f611c99565b6000808593508373ffffffffffffffffffffffffffffffffffffffff1663b65f289b6000604051602001526040518163ffffffff167c0100000000000000000000000000000000000000000000000000000000028152600401602060405180830381600087803b15156119f157600080fd5b6102c65a03f11515611a0257600080fd5b50505060405180519060200160405292505b611a1d876109aa565b158015611a305750611a2e836109aa565b155b15611aa0576001600a4260405180828152602001915050604051809103902060019004811515611a5c57fe5b060191506001600a4260405180828152602001915050604051809103902060019004811515611a8757fe5b0601905080836000015150508187600001515050611a14565b611aa9836109aa565b9450505050509392505050565b600b5481565b6000806000600a805490501415611ad65760019150611c08565b85858585600560009054906101000a900473ffffffffffffffffffffffffffffffffffffffff16604051808681526020018581526020018460ff1660ff167f01000000000000000000000000000000000000000000000000000000000000000281526001018360ff1660ff167f01000000000000000000000000000000000000000000000000000000000000000281526001018273ffffffffffffffffffffffffffffffffffffffff1673ffffffffffffffffffffffffffffffffffffffff166c0100000000000000000000000002815260140195505050505050604051809103902090508060001916600a60096000846000191660001916815260200190815260200160002060010154815481101515611bed57fe5b90600052602060002090600302016002015460001916141591505b50949350505050565b815481835581811511611c3e57600502816005028360005260206000209182019101611c3d9190611cad565b5b505050565b602060405190810160405280600081525090565b604051610e0380611d9083390190565b815481835581811511611c9457600302816003028360005260206000209182019101611c939190611d39565b5b505050565b602060405190810160405280600081525090565b611d3691905b80821115611d3257600080820160006101000a81549073ffffffffffffffffffffffffffffffffffffffff02191690556001820160006101000a81549073ffffffffffffffffffffffffffffffffffffffff02191690556002820160009055600382016000905560048201600080820160009055505050600501611cb3565b5090565b90565b611d8c91905b80821115611d8857600080820160006101000a81549073ffffffffffffffffffffffffffffffffffffffff02191690556001820160009055600282016000905550600301611d3f565b5090565b9056006060604052341561000f57600080fd5b60405160a080610e03833981016040528080519060200190919080519060200190919080519060200190919080519060200190919080519060200190919050503273ffffffffffffffffffffffffffffffffffffffff168173ffffffffffffffffffffffffffffffffffffffff16638da5cb5b6000604051602001526040518163ffffffff167c0100000000000000000000000000000000000000000000000000000000028152600401602060405180830381600087803b15156100d257600080fd5b6102c65a03f115156100e357600080fd5b5050506040518051905073ffffffffffffffffffffffffffffffffffffffff1614151561010f57600080fd5b32600260006101000a81548173ffffffffffffffffffffffffffffffffffffffff021916908373ffffffffffffffffffffffffffffffffffffffff16021790555080600960006101000a81548173ffffffffffffffffffffffffffffffffffffffff021916908373ffffffffffffffffffffffffffffffffffffffff16021790555084600a8190555083600b81905550600a6008600001819055505050505050610c45806101be6000396000f3006060604052600436106100ba576000357c0100000000000000000000000000000000000000000000000000000000900463ffffffff16806309218e91146100bf5780631588b80814610118578063330d02e414610168578063681fe70c146101985780638bd53d5c146101c55780638da5cb5b146101f257806392d2cd5e14610247578063a86d4ced14610270578063b4dc0244146102c1578063b65f289b14610303578063e2a73a151461032c578063f6bb839b1461036c575b600080fd5b34156100ca57600080fd5b6100d2610395565b604051808660ff1660ff1681526020018560ff1660ff16815260200184815260200183815260200182600019166000191681526020019550505050505060405180910390f35b341561012357600080fd5b61014e600480803560ff169060200190919080359060200190919080359060200190919050506103d3565b604051808215151515815260200191505060405180910390f35b341561017357600080fd5b61017b6105c3565b604051808381526020018281526020019250505060405180910390f35b34156101a357600080fd5b6101ab6105da565b604051808215151515815260200191505060405180910390f35b34156101d057600080fd5b6101d86106da565b604051808215151515815260200191505060405180910390f35b34156101fd57600080fd5b610205610870565b604051808273ffffffffffffffffffffffffffffffffffffffff1673ffffffffffffffffffffffffffffffffffffffff16815260200191505060405180910390f35b341561025257600080fd5b61025a610896565b6040518082815260200191505060405180910390f35b341561027b57600080fd5b6102a7600480803573ffffffffffffffffffffffffffffffffffffffff1690602001909190505061089c565b604051808215151515815260200191505060405180910390f35b34156102cc57600080fd5b610301600480803573ffffffffffffffffffffffffffffffffffffffff16906020019091908035906020019091905050610936565b005b341561030e57600080fd5b610316610a5d565b6040518082815260200191505060405180910390f35b341561033757600080fd5b610350600480803560ff16906020019091905050610ae7565b604051808260ff1660ff16815260200191505060405180910390f35b341561037757600080fd5b61037f610b5e565b6040518082815260200191505060405180910390f35b60048060000160009054906101000a900460ff16908060000160019054906101000a900460ff16908060010154908060020154908060030154905085565b60006103dd610b64565b600260009054906101000a900473ffffffffffffffffffffffffffffffffffffffff1673ffffffffffffffffffffffffffffffffffffffff163373ffffffffffffffffffffffffffffffffffffffff16148061050c5750600960009054906101000a900473ffffffffffffffffffffffffffffffffffffffff1673ffffffffffffffffffffffffffffffffffffffff16638da5cb5b6000604051602001526040518163ffffffff167c0100000000000000000000000000000000000000000000000000000000028152600401602060405180830381600087803b15156104c257600080fd5b6102c65a03f115156104d357600080fd5b5050506040518051905073ffffffffffffffffffffffffffffffffffffffff163373ffffffffffffffffffffffffffffffffffffffff16145b151561051757600080fd5b83816020018181525050848160000190600081111561053257fe5b9081600081111561053f57fe5b8152505082816040018181525050600080548060010182816105619190610b90565b9160005260206000209060030201600083909190915060008201518160000160006101000a81548160ff0219169083600081111561059b57fe5b0217905550602082015181600101556040820151816002015550505060019150509392505050565b600080600460010154600460020154915091509091565b6000600260009054906101000a900473ffffffffffffffffffffffffffffffffffffffff1673ffffffffffffffffffffffffffffffffffffffff16600960009054906101000a900473ffffffffffffffffffffffffffffffffffffffff1673ffffffffffffffffffffffffffffffffffffffff16638da5cb5b6000604051602001526040518163ffffffff167c0100000000000000000000000000000000000000000000000000000000028152600401602060405180830381600087803b15156106a357600080fd5b6102c65a03f115156106b457600080fd5b5050506040518051905073ffffffffffffffffffffffffffffffffffffffff1614905090565b600080600260009054906101000a900473ffffffffffffffffffffffffffffffffffffffff1673ffffffffffffffffffffffffffffffffffffffff163373ffffffffffffffffffffffffffffffffffffffff16148061080c5750600960009054906101000a900473ffffffffffffffffffffffffffffffffffffffff1673ffffffffffffffffffffffffffffffffffffffff16638da5cb5b6000604051602001526040518163ffffffff167c0100000000000000000000000000000000000000000000000000000000028152600401602060405180830381600087803b15156107c257600080fd5b6102c65a03f115156107d357600080fd5b5050506040518051905073ffffffffffffffffffffffffffffffffffffffff163373ffffffffffffffffffffffffffffffffffffffff16145b151561081757600080fd5b600090505b600080549050811015610867574260008281548110151561083957fe5b906000526020600020906003020160020154101561085a576001915061086c565b808060010191505061081c565b600091505b5090565b600260009054906101000a900473ffffffffffffffffffffffffffffffffffffffff1681565b600a5481565b60008173ffffffffffffffffffffffffffffffffffffffff16600d60008473ffffffffffffffffffffffffffffffffffffffff1673ffffffffffffffffffffffffffffffffffffffff16815260200190815260200160002060010160009054906101000a900473ffffffffffffffffffffffffffffffffffffffff1673ffffffffffffffffffffffffffffffffffffffff16149050919050565b6000600960009054906101000a900473ffffffffffffffffffffffffffffffffffffffff1690508073ffffffffffffffffffffffffffffffffffffffff16637263aafb3085856000604051602001526040518463ffffffff167c0100000000000000000000000000000000000000000000000000000000028152600401808473ffffffffffffffffffffffffffffffffffffffff1673ffffffffffffffffffffffffffffffffffffffff1681526020018373ffffffffffffffffffffffffffffffffffffffff1673ffffffffffffffffffffffffffffffffffffffff1681526020018281526020019350505050602060405180830381600087803b1515610a3c57600080fd5b6102c65a03f11515610a4d57600080fd5b5050506040518051905050505050565b610a65610bc2565b600260009054906101000a900473ffffffffffffffffffffffffffffffffffffffff1673ffffffffffffffffffffffffffffffffffffffff163273ffffffffffffffffffffffffffffffffffffffff161480610abf575060005b1515610aca57600080fd5b600860206040519081016040529081600082015481525050905090565b6000600c60008360405180826000811115610afe57fe5b60ff167f010000000000000000000000000000000000000000000000000000000000000002815260010191505060405180910390206000191660001916815260200190815260200160002060009054906101000a900460ff169050919050565b600b5481565b606060405190810160405280600080811115610b7c57fe5b815260200160008152602001600081525090565b815481835581811511610bbd57600302816003028360005260206000209182019101610bbc9190610bd6565b5b505050565b602060405190810160405280600081525090565b610c1691905b80821115610c1257600080820160006101000a81549060ff02191690556001820160009055600282016000905550600301610bdc565b5090565b905600a165627a7a72305820d2dcb9f0fc98fefe3fdc0d5ea82471e829e5a6dec0d559b208dcf375d117130f0029a165627a7a72305820f2f5dcb4c71b3f7be5025807d292b76c892b2158f34b773bb5ebe6687119ff4a00296060604052341561000f57600080fd5b60405160208061033583398101604052808051906020019091905050806000806101000a81548173ffffffffffffffffffffffffffffffffffffffff021916908373ffffffffffffffffffffffffffffffffffffffff160217905550506102ba8061007b6000396000f30060606040526004361061004c576000357c0100000000000000000000000000000000000000000000000000000000900463ffffffff16806341c0e1b514610051578063e2eb41ff14610066575b600080fd5b341561005c57600080fd5b610064610168565b005b341561007157600080fd5b61009d600480803573ffffffffffffffffffffffffffffffffffffffff1690602001909190505061024b565b60405180806020018373ffffffffffffffffffffffffffffffffffffffff1673ffffffffffffffffffffffffffffffffffffffff1681526020018281038252848181546001816001161561010002031660029004815260200191508054600181600116156101000203166002900480156101585780601f1061012d57610100808354040283529160200191610158565b820191906000526020600020905b81548152906001019060200180831161013b57829003601f168201915b5050935050505060405180910390f35b3373ffffffffffffffffffffffffffffffffffffffff166000809054906101000a900473ffffffffffffffffffffffffffffffffffffffff1673ffffffffffffffffffffffffffffffffffffffff16638da5cb5b6000604051602001526040518163ffffffff167c0100000000000000000000000000000000000000000000000000000000028152600401602060405180830381600087803b151561020c57600080fd5b6102c65a03f1151561021d57600080fd5b5050506040518051905073ffffffffffffffffffffffffffffffffffffffff1614151561024957600080fd5b565b600160205280600052604060002060009150905080600001908060010160009054906101000a900473ffffffffffffffffffffffffffffffffffffffff169050825600a165627a7a72305820067841dfe8ff1568373c0cce65810eb25dd00059dc7c2fd6e3ba488dfa554d180029",
  "source": "pragma solidity ^0.4.18;\n\nimport './PlayerContract.sol';\n\ncontract StoneThrower {\n    uint8 offense = 10;\n\n    uint8 defense = 10;\n}\n//\n//contract Attack {\n//    address attacker;\n//    address victim;\n//    uint arrivalTime;\n//    uint index;\n//    Island.Army army;\n//\n//    function Attack(address _attacker, address _victim, uint _arrivalTime, uint _index, Island.Army _army) {\n//        attacker = _attacker;\n//        victim = _victim;\n//        arrivalTime = _arrivalTime;\n//        index = _index;\n//        army = _army;\n//    }\n//}\n\n\ncontract Island {\n\n    // Defines the army\n    struct Army {\n    uint stonethrowers;\n    }\n\n    modifier requireIslandOwner {\n        require(msg.sender == owner || msg.sender == WorldContract(world).owner());\n        _;\n    }\n\n    modifier requireIslandOwnerOrAttacked {\n        require(tx.origin == owner\n            || false\n        );\n        _;\n    }\n\n    struct Transfer {\n    WorldContract.ResourceType resourceType;\n    uint amount;\n    uint arrival;\n    }\n\n    Transfer[] incomingTransfers;\n    Transfer[] outgoingTransfers;\n\n    enum ResearchType {Sail}\n\n    address public owner;\n\n    string name;\n\n    WorldContract.MapPosition public position;\n\n    Army army;\n\n    address world;\n    uint public oceanX;\n    uint public oceanY;\n\n    mapping (bytes32 => uint8) techLevels;\n\n    function Island(uint _oceanX, uint _oceanY, uint8 positionX, uint8 positionY, address _world) public {\n        require(WorldContract(_world).owner() == tx.origin);\n        owner = tx.origin;\n        world = _world;\n\n        oceanX = _oceanX;\n        oceanY = _oceanY;\n\n        army.stonethrowers = 10;\n\n//        position.x = _oceanX;\n//        position.y = _oceanY;\n//        position.xDimension = positionX;\n//        position.yDimension = positionY;\n    }\n\n    function getSerialized()\n    public\n    constant\n    returns (uint, uint){\n        return (position.x, position.y);\n    }\n\n\n    function getArmy() requireIslandOwnerOrAttacked public constant returns (Army) {\n        return army;\n    }\n\n    function getTechLevel(WorldContract.ResourceType resourceType) public constant returns (uint8) {\n        return techLevels[keccak256(resourceType)];\n    }\n\n    function isArmed() private constant returns (bool) {\n        return army.stonethrowers > 0;\n    }\n\n    function isEmpty() public constant returns (bool) {\n        return WorldContract(world).owner() == owner;\n    }\n\n    mapping (address => WorldContract.Attack) attacks;\n    function isAttacked(address defender) public constant returns (bool) {\n        return attacks[defender].victim == defender;\n    }\n\n    function hasArrivals() requireIslandOwner public constant returns (bool) {\n        for (uint i = 0; i < incomingTransfers.length; i++) {\n            if (incomingTransfers[i].arrival < now) {\n                return true;\n            }\n        }\n        return false;\n    }\n\n    function transferResource(WorldContract.ResourceType resourceType, uint amount, uint arrivalTime) requireIslandOwner public returns (bool) {\n        Transfer memory t;\n        t.amount = amount;\n        t.resourceType = resourceType;\n        t.arrival = arrivalTime;\n        incomingTransfers.push(t);\n        return true;\n    }\n\n    function attack(address targetIsland, Army army) {\n        WorldContract worldInstance = WorldContract(world);\n        worldInstance.setAttack(this, targetIsland, army);\n    }\n\n//    function getAttacks()\n//    public\n//    constant\n//    returns (WorldContract.Attack[]) {\n//        require(tx.origin == owner || tx.origin == WorldContract(world).owner());\n//        return WorldContract(world).getAttacks(this);\n//    }\n\n}\n\n\ncontract WorldContract is GameContract {\n\n    modifier onlyOwner {\n        require(msg.sender == owner);\n        _;\n    }\n\n    enum ResourceType {StoneThrower}\n\n    struct IslandAddress {\n    address id;\n    uint index;\n    bytes32 positionHash;\n    }\n\n    // Defines a position inside the world map\n    struct MapPosition {\n    uint8 xDimension;\n    uint8 yDimension;\n    uint x;\n    uint y;\n    bytes32 hash;\n    }\n\n\n    struct Attack {\n    address attacker;\n    address victim;\n    uint arrivalTime;\n    uint index;\n    Island.Army army;\n    }\n\n    Attack[] attacksIndex;\n    mapping (address => Attack[]) attacks;\n\n    Attack[] defendsIndex;\n    mapping (address => Attack[]) defends;\n\n    // Creator/Superuser of a world\n    address public owner;\n\n    // Players\n    address players;\n\n    mapping (address => address[]) playerIslands;\n\n    mapping (address => IslandAddress) islands;\n    mapping (bytes32 => IslandAddress) islandsPositions;\n\n    IslandAddress[] islandIndex;\n\n    // world dimension x\n    uint public xDimension;\n    // world dimension y\n    uint public yDimension;\n\n    function WorldContract(uint _x, uint _y) public {\n        owner = tx.origin;\n        xDimension = _x;\n        yDimension = _y;\n\n        // create a new players contract\n        players = new PlayerContract(this);\n    }\n\n    function isFree(uint oceanX, uint oceanY, uint8 positionX, uint8 positionY) private constant returns (bool) {\n//        return true;\n//        require(oceanX <= xDimension && oceanY <= yDimension);\n        if (islandIndex.length == 0) return true;\n        bytes32 positionHash = keccak256(oceanX, oceanY, positionX, positionY, owner);\n        return islandIndex[islandsPositions[positionHash].index].positionHash != positionHash;\n    }\n\n    function isIsland(address islandAddress) public constant returns (bool) {\n        if (islandIndex.length == 0) return false;\n        return islandIndex[islands[islandAddress].index].id == islandAddress;\n    }\n\n    function createIsland(uint oceanX, uint oceanY, uint8 positionX, uint8 positionY) public returns (address){\n        require(oceanX <= xDimension);\n        bytes32 positionHash = keccak256(oceanX, oceanY, positionX, positionY, owner);\n        require(isFree(oceanX, oceanY, positionX, positionY));\n\n        address island = new Island(oceanX, oceanY, positionX, positionY, this);\n        islandsPositions[positionHash].id = island;\n        islandsPositions[positionHash].index = islandIndex.push(islandsPositions[positionHash]);\n\n        return island;\n    }\n\n    function getTravelTime(address _sourceIsland, address _targetIsland) public constant returns (uint) {\n        require(isIsland(_sourceIsland));\n        require(isIsland(_targetIsland));\n\n        Island sourceIsland = Island(_sourceIsland);\n        require(msg.sender == sourceIsland.owner() || msg.sender == owner);\n        // TODO: calculate travel time depending on tech level and boat type\n        // uint level = sourceIsland.getTechLevel(Island.ResearchType.Sail);\n        return 5 minutes;\n    }\n\n    function createTransferOrder(ResourceType resourceType, uint amount, address sourceIsland, address targetIsland) public returns (bool) {\n        require(isIsland(targetIsland));\n        require(amount > 0);\n        Island island = Island(targetIsland);\n        if (!isIsland(targetIsland) && msg.sender == owner) {\n            require(sourceIsland == owner);\n            island.transferResource(resourceType, amount, now);\n        }\n        else {\n            uint travelTime = getTravelTime(sourceIsland, targetIsland);\n            island.transferResource(resourceType, amount, now + travelTime);\n        }\n    }\n\n    function getETA(Island.Army army) public constant returns (uint) {\n        return now - 5 minutes;  // + 5 minutes;\n    }\n\n    function somethingNew(address user) public constant returns (bool) {\n        for (uint i = 0; i < attacks[user].length; i++) {\n            if (attacks[user][i].arrivalTime < now) {\n                return true;\n            }\n        }\n        return false;\n    }\n\n    function isDead(Island.Army army) public constant returns (bool) {\n        return army.stonethrowers < 1;\n    }\n\n    function fight(address attacker, Island.Army army, address defender) public returns (bool) {\n        Island defendingIsland = Island(defender);\n        Island.Army memory defArmy = defendingIsland.getArmy();\n        while (!isDead(army) && !isDead(defArmy)) {\n            uint randomDefense = uint(keccak256(block.timestamp)) % 10 + 1;\n            uint randomAttack = uint(keccak256(block.timestamp)) % 10 + 1;\n            defArmy.stonethrowers - randomAttack;\n            army.stonethrowers - randomDefense;\n        }\n        return isDead(defArmy);\n    }\n\n    function updateWorld(address user) public returns (bool) {\n        if (somethingNew(user)) {\n            for (uint i = 0; i < attacks[user].length; i++) {\n                if (attacks[user][i].arrivalTime < now) {\n                    fight(attacks[user][i].attacker, attacks[user][i].army, user);\n\n                }\n            }\n            for (uint j = 0; j < defends[user].length; j++) {\n                if (defends[user][i].arrivalTime < now) {\n                    fight(user, defends[user][i].army, defends[user][i].victim);\n                }\n            }\n        }\n    }\n\n    function setAttack(address attacker, address victim, Island.Army army) public returns (bool) {\n        uint arrivalTime = getETA(army);\n        Attack attack;\n        attack.attacker = attacker;\n        attack.victim = victim;\n        attack.arrivalTime = arrivalTime;\n        attack.index = attacksIndex.length;\n        attack.army = army;\n        attacksIndex.push(attack);\n        attacks[attacker].push(attack);\n        defends[victim].push(attack);\n        return true;\n    }\n\n    function getAttacks(address island) public constant returns (Attack[]){\n        require(tx.origin == Island(island).owner());\n//        Attack[] myArray =\n        return attacks[island];\n    }\n\n    function kill() public view {\n        require(msg.sender == owner);\n    }\n\n}",
  "sourcePath": "/Users/tillkolter/work/me/islandcoin/contracts/WorldContract.sol",
  "compiler": {
    "name": "solc",
    "version": "0.4.18+commit.9cf6e910.Emscripten.clang"
  },
  "schemaVersion": "1.0.1",
  "updatedAt": "2017-12-15T10:24:40.099Z"
}