{
  "contractName": "WorldContract",
  "abi": [
    {
      "constant": false,
      "inputs": [
        {
          "name": "oceanX",
          "type": "uint8"
        },
        {
          "name": "oceanY",
          "type": "uint8"
        },
        {
          "name": "positionX",
          "type": "uint8"
        },
        {
          "name": "positionY",
          "type": "uint8"
        }
      ],
      "name": "createIsland",
      "outputs": [
        {
          "name": "",
          "type": "bool"
        }
      ],
      "payable": false,
      "stateMutability": "nonpayable",
      "type": "function"
    },
    {
      "constant": false,
      "inputs": [],
      "name": "kill",
      "outputs": [],
      "payable": false,
      "stateMutability": "nonpayable",
      "type": "function"
    },
    {
      "constant": false,
      "inputs": [
        {
          "name": "resourceType",
          "type": "uint8"
        },
        {
          "name": "amount",
          "type": "uint256"
        },
        {
          "name": "sourceIsland",
          "type": "address"
        },
        {
          "name": "targetIsland",
          "type": "address"
        }
      ],
      "name": "createTransferOrder",
      "outputs": [
        {
          "name": "",
          "type": "bool"
        }
      ],
      "payable": false,
      "stateMutability": "nonpayable",
      "type": "function"
    },
    {
      "constant": true,
      "inputs": [],
      "name": "owner",
      "outputs": [
        {
          "name": "",
          "type": "address"
        }
      ],
      "payable": false,
      "stateMutability": "view",
      "type": "function"
    },
    {
      "constant": true,
      "inputs": [
        {
          "name": "islandAddress",
          "type": "address"
        }
      ],
      "name": "isIsland",
      "outputs": [
        {
          "name": "",
          "type": "bool"
        }
      ],
      "payable": false,
      "stateMutability": "view",
      "type": "function"
    },
    {
      "constant": true,
      "inputs": [
        {
          "name": "_sourceIsland",
          "type": "address"
        },
        {
          "name": "_targetIsland",
          "type": "address"
        }
      ],
      "name": "getTravelTime",
      "outputs": [
        {
          "name": "",
          "type": "uint256"
        }
      ],
      "payable": false,
      "stateMutability": "view",
      "type": "function"
    },
    {
      "inputs": [
        {
          "name": "_x",
          "type": "uint8"
        },
        {
          "name": "_y",
          "type": "uint8"
        }
      ],
      "payable": false,
      "stateMutability": "nonpayable",
      "type": "constructor"
    }
  ],
  "bytecode": "0x6060604052341561000f57600080fd5b604051604080611b3a83398101604052808051906020019091908051906020019091905050336000806101000a81548173ffffffffffffffffffffffffffffffffffffffff021916908373ffffffffffffffffffffffffffffffffffffffff16021790555033600160006101000a81548173ffffffffffffffffffffffffffffffffffffffff021916908373ffffffffffffffffffffffffffffffffffffffff16021790555081600760006101000a81548160ff021916908360ff16021790555080600760016101000a81548160ff021916908360ff160217905550306100f4610187565b808273ffffffffffffffffffffffffffffffffffffffff1673ffffffffffffffffffffffffffffffffffffffff168152602001915050604051809103906000f080151561014057600080fd5b600260006101000a81548173ffffffffffffffffffffffffffffffffffffffff021916908373ffffffffffffffffffffffffffffffffffffffff1602179055505050610197565b6040516103358061180583390190565b61165f806101a66000396000f300606060405260043610610078576000357c0100000000000000000000000000000000000000000000000000000000900463ffffffff16806327eb83f71461007d57806341c0e1b5146100df5780635876c9fc146100f45780638da5cb5b14610179578063e2402330146101ce578063e3d4b0211461021f575b600080fd5b341561008857600080fd5b6100c5600480803560ff1690602001909190803560ff1690602001909190803560ff1690602001909190803560ff1690602001909190505061028b565b604051808215151515815260200191505060405180910390f35b34156100ea57600080fd5b6100f26105e1565b005b34156100ff57600080fd5b61015f600480803560ff1690602001909190803590602001909190803573ffffffffffffffffffffffffffffffffffffffff1690602001909190803573ffffffffffffffffffffffffffffffffffffffff1690602001909190505061063f565b604051808215151515815260200191505060405180910390f35b341561018457600080fd5b61018c6108ae565b604051808273ffffffffffffffffffffffffffffffffffffffff1673ffffffffffffffffffffffffffffffffffffffff16815260200191505060405180910390f35b34156101d957600080fd5b610205600480803573ffffffffffffffffffffffffffffffffffffffff169060200190919050506108d4565b604051808215151515815260200191505060405180910390f35b341561022a57600080fd5b610275600480803573ffffffffffffffffffffffffffffffffffffffff1690602001909190803573ffffffffffffffffffffffffffffffffffffffff169060200190919050506109a5565b6040518082815260200191505060405180910390f35b600080600086868686600160009054906101000a900473ffffffffffffffffffffffffffffffffffffffff16604051808660ff1660ff167f01000000000000000000000000000000000000000000000000000000000000000281526001018560ff1660ff167f01000000000000000000000000000000000000000000000000000000000000000281526001018460ff1660ff167f01000000000000000000000000000000000000000000000000000000000000000281526001018360ff1660ff167f01000000000000000000000000000000000000000000000000000000000000000281526001018273ffffffffffffffffffffffffffffffffffffffff1673ffffffffffffffffffffffffffffffffffffffff166c0100000000000000000000000002815260140195505050505050604051809103902091506103d187878787610af7565b15156103dc57600080fd5b86868686600160009054906101000a900473ffffffffffffffffffffffffffffffffffffffff1661040b610ce1565b808660ff1660ff1681526020018560ff1660ff1681526020018460ff1660ff1681526020018360ff1660ff1681526020018273ffffffffffffffffffffffffffffffffffffffff1673ffffffffffffffffffffffffffffffffffffffff16815260200195505050505050604051809103906000f080151561048b57600080fd5b90508060056000846000191660001916815260200190815260200160002060000160006101000a81548173ffffffffffffffffffffffffffffffffffffffff021916908373ffffffffffffffffffffffffffffffffffffffff160217905550600680548060010182816104fe9190610cf1565b9160005260206000209060030201600060056000866000191660001916815260200190815260200160002090919091506000820160009054906101000a900473ffffffffffffffffffffffffffffffffffffffff168160000160006101000a81548173ffffffffffffffffffffffffffffffffffffffff021916908373ffffffffffffffffffffffffffffffffffffffff1602179055506001820154816001015560028201548160020190600019169055505060056000846000191660001916815260200190815260200160002060010181905550600192505050949350505050565b600160009054906101000a900473ffffffffffffffffffffffffffffffffffffffff1673ffffffffffffffffffffffffffffffffffffffff163373ffffffffffffffffffffffffffffffffffffffff1614151561063d57600080fd5b565b600080600061064d846108d4565b151561065857600080fd5b60008611151561066757600080fd5b839150610673846108d4565b1580156106cd5750600160009054906101000a900473ffffffffffffffffffffffffffffffffffffffff1673ffffffffffffffffffffffffffffffffffffffff163373ffffffffffffffffffffffffffffffffffffffff16145b156107e457600160009054906101000a900473ffffffffffffffffffffffffffffffffffffffff1673ffffffffffffffffffffffffffffffffffffffff168573ffffffffffffffffffffffffffffffffffffffff1614151561072e57600080fd5b8173ffffffffffffffffffffffffffffffffffffffff16631588b8088888426000604051602001526040518463ffffffff167c01000000000000000000000000000000000000000000000000000000000281526004018084600681111561079157fe5b60ff1681526020018381526020018281526020019350505050602060405180830381600087803b15156107c357600080fd5b6102c65a03f115156107d457600080fd5b50505060405180519050506108a4565b6107ee85856109a5565b90508173ffffffffffffffffffffffffffffffffffffffff16631588b80888888442016000604051602001526040518463ffffffff167c01000000000000000000000000000000000000000000000000000000000281526004018084600681111561085557fe5b60ff1681526020018381526020018281526020019350505050602060405180830381600087803b151561088757600080fd5b6102c65a03f1151561089857600080fd5b50505060405180519050505b5050949350505050565b600160009054906101000a900473ffffffffffffffffffffffffffffffffffffffff1681565b60008060068054905014156108ec57600090506109a0565b8173ffffffffffffffffffffffffffffffffffffffff166006600460008573ffffffffffffffffffffffffffffffffffffffff1673ffffffffffffffffffffffffffffffffffffffff1681526020019081526020016000206001015481548110151561095457fe5b906000526020600020906003020160000160009054906101000a900473ffffffffffffffffffffffffffffffffffffffff1673ffffffffffffffffffffffffffffffffffffffff161490505b919050565b6000806109b1846108d4565b15156109bc57600080fd5b6109c5836108d4565b15156109d057600080fd5b8390508073ffffffffffffffffffffffffffffffffffffffff16638da5cb5b6000604051602001526040518163ffffffff167c0100000000000000000000000000000000000000000000000000000000028152600401602060405180830381600087803b1515610a3f57600080fd5b6102c65a03f11515610a5057600080fd5b5050506040518051905073ffffffffffffffffffffffffffffffffffffffff163373ffffffffffffffffffffffffffffffffffffffff161480610ae05750600160009054906101000a900473ffffffffffffffffffffffffffffffffffffffff1673ffffffffffffffffffffffffffffffffffffffff163373ffffffffffffffffffffffffffffffffffffffff16145b1515610aeb57600080fd5b61012c91505092915050565b600080600760009054906101000a900460ff1660ff168660ff1611158015610b345750600760019054906101000a900460ff1660ff168560ff1611155b1515610b3f57600080fd5b60006006805490501415610b565760019150610cd8565b85858585600160009054906101000a900473ffffffffffffffffffffffffffffffffffffffff16604051808660ff1660ff167f01000000000000000000000000000000000000000000000000000000000000000281526001018560ff1660ff167f01000000000000000000000000000000000000000000000000000000000000000281526001018460ff1660ff167f01000000000000000000000000000000000000000000000000000000000000000281526001018360ff1660ff167f01000000000000000000000000000000000000000000000000000000000000000281526001018273ffffffffffffffffffffffffffffffffffffffff1673ffffffffffffffffffffffffffffffffffffffff166c0100000000000000000000000002815260140195505050505050604051809103902090508060001916600660056000846000191660001916815260200190815260200160002060010154815481101515610cbd57fe5b90600052602060002090600302016002015460001916141591505b50949350505050565b6040516108ba80610d7a83390190565b815481835581811511610d1e57600302816003028360005260206000209182019101610d1d9190610d23565b5b505050565b610d7691905b80821115610d7257600080820160006101000a81549073ffffffffffffffffffffffffffffffffffffffff02191690556001820160009055600282016000905550600301610d29565b5090565b9056006060604052341561000f57600080fd5b60405160a0806108ba833981016040528080519060200190919080519060200190919080519060200190919080519060200190919080519060200190919050503373ffffffffffffffffffffffffffffffffffffffff168173ffffffffffffffffffffffffffffffffffffffff16638da5cb5b6000604051602001526040518163ffffffff167c0100000000000000000000000000000000000000000000000000000000028152600401602060405180830381600087803b15156100d257600080fd5b6102c65a03f115156100e357600080fd5b5050506040518051905073ffffffffffffffffffffffffffffffffffffffff1614151561010f57600080fd5b33600260006101000a81548173ffffffffffffffffffffffffffffffffffffffff021916908373ffffffffffffffffffffffffffffffffffffffff16021790555080600760006101000a81548173ffffffffffffffffffffffffffffffffffffffff021916908373ffffffffffffffffffffffffffffffffffffffff16021790555084600460000160026101000a81548160ff021916908360ff16021790555083600460000160036101000a81548160ff021916908360ff16021790555082600460000160026101000a81548160ff021916908360ff16021790555081600460000160036101000a81548160ff021916908360ff160217905550505050505061069d8061021d6000396000f300606060405260043610610078576000357c0100000000000000000000000000000000000000000000000000000000900463ffffffff1680631588b8081461007d578063681fe70c146100cd5780638bd53d5c146100fa5780638da5cb5b14610127578063b65f289b1461017c578063e2a73a15146101a5575b600080fd5b341561008857600080fd5b6100b3600480803560ff169060200190919080359060200190919080359060200190919050506101e5565b604051808215151515815260200191505060405180910390f35b34156100d857600080fd5b6100e06102aa565b604051808215151515815260200191505060405180910390f35b341561010557600080fd5b61010d6103aa565b604051808215151515815260200191505060405180910390f35b341561013257600080fd5b61013a61040e565b604051808273ffffffffffffffffffffffffffffffffffffffff1673ffffffffffffffffffffffffffffffffffffffff16815260200191505060405180910390f35b341561018757600080fd5b61018f610434565b6040518082815260200191505060405180910390f35b34156101b057600080fd5b6101c9600480803560ff16906020019091905050610449565b604051808260ff1660ff16815260200191505060405180910390f35b6000806101f06104c0565b838160010181905550848160000160006101000a81548160ff0219169083600681111561021957fe5b02179055508281600201819055506000805480600101828161023b91906105fc565b916000526020600020906003020160008390919091506000820160009054906101000a900460ff168160000160006101000a81548160ff0219169083600681111561028257fe5b0217905550600182015481600101556002820154816002015550505060019150509392505050565b6000600260009054906101000a900473ffffffffffffffffffffffffffffffffffffffff1673ffffffffffffffffffffffffffffffffffffffff16600760009054906101000a900473ffffffffffffffffffffffffffffffffffffffff1673ffffffffffffffffffffffffffffffffffffffff16638da5cb5b6000604051602001526040518163ffffffff167c0100000000000000000000000000000000000000000000000000000000028152600401602060405180830381600087803b151561037357600080fd5b6102c65a03f1151561038457600080fd5b5050506040518051905073ffffffffffffffffffffffffffffffffffffffff1614905090565b6000806103b56104c0565b600090505b60008054905081101561040557426000828154811015156103d757fe5b90600052602060002090600302016002015410156103f8576001915061040a565b80806001019150506103ba565b600091505b5090565b600260009054906101000a900473ffffffffffffffffffffffffffffffffffffffff1681565b600061043e6104c0565b600660000154905090565b600060086000836040518082600681111561046057fe5b60ff167f010000000000000000000000000000000000000000000000000000000000000002815260010191505060405180910390206000191660001916815260200190815260200160002060009054906101000a900460ff169050919050565b600260009054906101000a900473ffffffffffffffffffffffffffffffffffffffff1673ffffffffffffffffffffffffffffffffffffffff163373ffffffffffffffffffffffffffffffffffffffff1614806105ef5750600760009054906101000a900473ffffffffffffffffffffffffffffffffffffffff1673ffffffffffffffffffffffffffffffffffffffff16638da5cb5b6000604051602001526040518163ffffffff167c0100000000000000000000000000000000000000000000000000000000028152600401602060405180830381600087803b15156105a557600080fd5b6102c65a03f115156105b657600080fd5b5050506040518051905073ffffffffffffffffffffffffffffffffffffffff163373ffffffffffffffffffffffffffffffffffffffff16145b15156105fa57600080fd5b565b81548183558181151161062957600302816003028360005260206000209182019101610628919061062e565b5b505050565b61066e91905b8082111561066a57600080820160006101000a81549060ff02191690556001820160009055600282016000905550600301610634565b5090565b905600a165627a7a7230582035ee2f034bb6c2ff994da4d4162850d93401b4d79bc637928f236d94ffb8ca460029a165627a7a7230582002246de7224b1243c9652e3f9d157925574654fda2b3bf112aa34a933d73a0ad00296060604052341561000f57600080fd5b60405160208061033583398101604052808051906020019091905050806000806101000a81548173ffffffffffffffffffffffffffffffffffffffff021916908373ffffffffffffffffffffffffffffffffffffffff160217905550506102ba8061007b6000396000f30060606040526004361061004c576000357c0100000000000000000000000000000000000000000000000000000000900463ffffffff16806341c0e1b514610051578063e2eb41ff14610066575b600080fd5b341561005c57600080fd5b610064610168565b005b341561007157600080fd5b61009d600480803573ffffffffffffffffffffffffffffffffffffffff1690602001909190505061024b565b60405180806020018373ffffffffffffffffffffffffffffffffffffffff1673ffffffffffffffffffffffffffffffffffffffff1681526020018281038252848181546001816001161561010002031660029004815260200191508054600181600116156101000203166002900480156101585780601f1061012d57610100808354040283529160200191610158565b820191906000526020600020905b81548152906001019060200180831161013b57829003601f168201915b5050935050505060405180910390f35b3373ffffffffffffffffffffffffffffffffffffffff166000809054906101000a900473ffffffffffffffffffffffffffffffffffffffff1673ffffffffffffffffffffffffffffffffffffffff16638da5cb5b6000604051602001526040518163ffffffff167c0100000000000000000000000000000000000000000000000000000000028152600401602060405180830381600087803b151561020c57600080fd5b6102c65a03f1151561021d57600080fd5b5050506040518051905073ffffffffffffffffffffffffffffffffffffffff1614151561024957600080fd5b565b600160205280600052604060002060009150905080600001908060010160009054906101000a900473ffffffffffffffffffffffffffffffffffffffff169050825600a165627a7a7230582040f57e1a64ad22467b8bbd861e259e0b5e4faacf0586efe385f4fa0949ea65980029",
  "source": "pragma solidity ^0.4.18;\n\nimport './PlayerContract.sol';\n\ncontract StoneThrower {\n    uint8 offense = 10;\n\n    uint8 defense = 10;\n}\n\n\ncontract Island {\n\n    // Defines the army\n    struct Army {\n    uint stonethrowers;\n    }\n\n    struct Transfer {\n    WorldContract.ResourceType resourceType;\n    uint amount;\n    uint arrival;\n    }\n\n    Transfer[] incomingTransfers;\n    Transfer[] outgoingTransfers;\n\n    enum ResearchType {Sail}\n\n    address public owner;\n\n    string name;\n\n    WorldContract.MapPosition position;\n\n    Army army;\n\n    address world;\n\n    mapping (bytes32 => uint8) techLevels;\n\n    function Island(uint8 oceanX, uint8 oceanY, uint8 positionX, uint8 positionY, address _world) public {\n        require(WorldContract(_world).owner() == msg.sender);\n        owner = msg.sender;\n        world = _world;\n\n        position.x = oceanX;\n        position.y = oceanY;\n        position.x = positionX;\n        position.y = positionY;\n    }\n\n    function getArmy() public constant returns (uint) {\n        requirePermission();\n        return army.stonethrowers;\n    }\n\n    function getTechLevel(WorldContract.ResourceType resourceType) public constant returns (uint8) {\n        return techLevels[sha3(resourceType)];\n    }\n\n    function isArmed() private constant returns (bool) {\n        return army.stonethrowers > 0;\n    }\n\n    function isEmpty() public constant returns (bool) {\n        return WorldContract(world).owner() == owner;\n    }\n\n    function requirePermission() private {\n        require(msg.sender == owner || msg.sender == WorldContract(world).owner());\n    }\n\n    function hasArrivals() public constant returns (bool) {\n        requirePermission();\n        for (uint i = 0; i < incomingTransfers.length; i++) {\n            if (incomingTransfers[i].arrival < now) {\n                return true;\n            }\n        }\n        return false;\n    }\n\n    function transferResource(WorldContract.ResourceType resourceType, uint amount, uint arrivalTime) public returns (bool) {\n        requirePermission();\n        Transfer t;\n        t.amount = amount;\n        t.resourceType = resourceType;\n        t.arrival = arrivalTime;\n        incomingTransfers.push(t);\n        return true;\n    }\n\n}\n\n\ncontract WorldContract is GameContract {\n\n    enum ResourceType {Gold, Stone, Lumber, StoneThrower, Spearfighter, Archer, Catapult}\n\n    struct IslandAddress {\n    address id;\n    uint index;\n    bytes32 positionHash;\n    }\n\n    // Defines a position inside the world map\n    struct MapPosition {\n    uint8 ocean_x;\n    uint8 ocean_y;\n    uint8 x;\n    uint8 y;\n    bytes32 hash;\n    }\n\n    // Creator/Superuser of a world\n    address public owner;\n\n    // Players\n    address players;\n\n    mapping (address => address[]) playerIslands;\n\n    mapping (address => IslandAddress) islands;\n    mapping (bytes32 => IslandAddress) islandsPositions;\n\n    IslandAddress[] islandIndex;\n\n    // world dimension x\n    uint8 x;\n    // world dimension y\n    uint8 y;\n\n\n    function WorldContract(uint8 _x, uint8 _y) public {\n        owner = msg.sender;\n        x = _x;\n        y = _y;\n\n        // create a new players contract\n        players = new PlayerContract(this);\n    }\n\n    function isFree(uint8 oceanX, uint8 oceanY, uint8 positionX, uint8 positionY) private constant returns (bool) {\n        require(oceanX <= x && oceanY <= y);\n        if (islandIndex.length == 0) return true;\n        bytes32 positionHash = keccak256(oceanX, oceanY, positionX, positionY, owner);\n        return islandIndex[islandsPositions[positionHash].index].positionHash != positionHash;\n    }\n\n    function isIsland(address islandAddress) public constant returns (bool) {\n        if (islandIndex.length == 0) return false;\n        return islandIndex[islands[islandAddress].index].id == islandAddress;\n    }\n\n    function createIsland(uint8 oceanX, uint8 oceanY, uint8 positionX, uint8 positionY) public returns (bool){\n        bytes32 positionHash = sha3(oceanX, oceanY, positionX, positionY, owner);\n        require(isFree(oceanX, oceanY, positionX, positionY));\n\n        address island = new Island(oceanX, oceanY, positionX, positionY, owner);\n\n        islandsPositions[positionHash].id = island;\n        islandsPositions[positionHash].index = islandIndex.push(islandsPositions[positionHash]);\n\n        return true;\n    }\n\n    function getTravelTime(address _sourceIsland, address _targetIsland) public constant returns (uint) {\n        require(isIsland(_sourceIsland));\n        require(isIsland(_targetIsland));\n\n        Island sourceIsland = Island(_sourceIsland);\n        require(msg.sender == sourceIsland.owner() || msg.sender == owner);\n        // TODO: calculate travel time depending on tech level and boat type\n        // uint level = sourceIsland.getTechLevel(Island.ResearchType.Sail);\n        return 5 minutes;\n    }\n\n    function createTransferOrder(ResourceType resourceType, uint amount, address sourceIsland, address targetIsland) public returns (bool) {\n        require(isIsland(targetIsland));\n        require(amount > 0);\n        Island island = Island(targetIsland);\n        if (!isIsland(targetIsland) && msg.sender == owner) {\n            require(sourceIsland == owner);\n            island.transferResource(resourceType, amount, now);\n        }\n        else {\n            uint travelTime = getTravelTime(sourceIsland, targetIsland);\n            island.transferResource(resourceType, amount, now + travelTime);\n        }\n    }\n//\n//    function getArmy(address _player) public constant returns (uint) {\n//        require(msg.sender == owner || msg.sender == _player);\n//        uint stonethrowers = 0;\n//        uint player = PlayerContract(players).players[_player];\n//        for (uint i = 0; i < player.islands.length; i++) {\n//            Island island = player.islands[i];\n//            stonethrowers += island.army.stonethrowers;\n//        }\n//        return stonethrowers;\n//    }\n\n    function kill() public {\n        require(msg.sender == owner);\n    }\n\n}",
  "sourcePath": "/Users/tillkolter/work/me/islandcoin/contracts/WorldContract.sol",
  "compiler": {
    "name": "solc",
    "version": "0.4.18+commit.9cf6e910.Emscripten.clang"
  },
  "schemaVersion": "1.0.1",
  "updatedAt": "2017-12-12T13:44:45.022Z"
}